{
  "_format": "hh-sol-artifact-1",
  "contractName": "Raffle",
  "sourceName": "contracts/Raffle.sol",
  "abi": [
    {
      "inputs": [
        {
          "internalType": "address",
          "name": "vrfCoordinatorV2",
          "type": "address"
        },
        {
          "internalType": "uint64",
          "name": "subscriptionId",
          "type": "uint64"
        },
        {
          "internalType": "bytes32",
          "name": "gasLane",
          "type": "bytes32"
        },
        {
          "internalType": "uint256",
          "name": "interval",
          "type": "uint256"
        },
        {
          "internalType": "uint256",
          "name": "entranceFee",
          "type": "uint256"
        },
        {
          "internalType": "uint32",
          "name": "callbackGasLimit",
          "type": "uint32"
        }
      ],
      "stateMutability": "nonpayable",
      "type": "constructor"
    },
    {
      "inputs": [
        {
          "internalType": "address",
          "name": "have",
          "type": "address"
        },
        {
          "internalType": "address",
          "name": "want",
          "type": "address"
        }
      ],
      "name": "OnlyCoordinatorCanFulfill",
      "type": "error"
    },
    {
      "inputs": [],
      "name": "Raffle__NotEnoughETHEntered",
      "type": "error"
    },
    {
      "inputs": [],
      "name": "Raffle__NotOpen",
      "type": "error"
    },
    {
      "inputs": [],
      "name": "Raffle__TransferFailed",
      "type": "error"
    },
    {
      "inputs": [
        {
          "internalType": "uint256",
          "name": "currentBalance",
          "type": "uint256"
        },
        {
          "internalType": "uint256",
          "name": "numPlayers",
          "type": "uint256"
        },
        {
          "internalType": "uint256",
          "name": "raffleState",
          "type": "uint256"
        }
      ],
      "name": "Raffle__UpkeepNotNeeded",
      "type": "error"
    },
    {
      "anonymous": false,
      "inputs": [
        {
          "indexed": true,
          "internalType": "address",
          "name": "player",
          "type": "address"
        }
      ],
      "name": "RaffleEnter",
      "type": "event"
    },
    {
      "anonymous": false,
      "inputs": [
        {
          "indexed": true,
          "internalType": "uint256",
          "name": "requestId",
          "type": "uint256"
        }
      ],
      "name": "RequestRaffleWinner",
      "type": "event"
    },
    {
      "anonymous": false,
      "inputs": [
        {
          "indexed": true,
          "internalType": "address",
          "name": "winner",
          "type": "address"
        }
      ],
      "name": "WinnerPicked",
      "type": "event"
    },
    {
      "inputs": [
        {
          "internalType": "bytes",
          "name": "",
          "type": "bytes"
        }
      ],
      "name": "checkUpkeep",
      "outputs": [
        {
          "internalType": "bool",
          "name": "upkeepNeeded",
          "type": "bool"
        },
        {
          "internalType": "bytes",
          "name": "",
          "type": "bytes"
        }
      ],
      "stateMutability": "view",
      "type": "function"
    },
    {
      "inputs": [],
      "name": "enterRaffle",
      "outputs": [],
      "stateMutability": "payable",
      "type": "function"
    },
    {
      "inputs": [],
      "name": "getEntranceFee",
      "outputs": [
        {
          "internalType": "uint256",
          "name": "",
          "type": "uint256"
        }
      ],
      "stateMutability": "view",
      "type": "function"
    },
    {
      "inputs": [],
      "name": "getEntrancefee",
      "outputs": [
        {
          "internalType": "uint256",
          "name": "",
          "type": "uint256"
        }
      ],
      "stateMutability": "view",
      "type": "function"
    },
    {
      "inputs": [],
      "name": "getInterval",
      "outputs": [
        {
          "internalType": "uint256",
          "name": "",
          "type": "uint256"
        }
      ],
      "stateMutability": "view",
      "type": "function"
    },
    {
      "inputs": [],
      "name": "getLastTimeStamp",
      "outputs": [
        {
          "internalType": "uint256",
          "name": "",
          "type": "uint256"
        }
      ],
      "stateMutability": "view",
      "type": "function"
    },
    {
      "inputs": [],
      "name": "getNumWords",
      "outputs": [
        {
          "internalType": "uint256",
          "name": "",
          "type": "uint256"
        }
      ],
      "stateMutability": "pure",
      "type": "function"
    },
    {
      "inputs": [],
      "name": "getNumberOfPlayers",
      "outputs": [
        {
          "internalType": "uint256",
          "name": "",
          "type": "uint256"
        }
      ],
      "stateMutability": "view",
      "type": "function"
    },
    {
      "inputs": [
        {
          "internalType": "uint256",
          "name": "index",
          "type": "uint256"
        }
      ],
      "name": "getPlayer",
      "outputs": [
        {
          "internalType": "address",
          "name": "",
          "type": "address"
        }
      ],
      "stateMutability": "view",
      "type": "function"
    },
    {
      "inputs": [],
      "name": "getRaffleState",
      "outputs": [
        {
          "internalType": "enum Raffle.RaffleState",
          "name": "",
          "type": "uint8"
        }
      ],
      "stateMutability": "view",
      "type": "function"
    },
    {
      "inputs": [],
      "name": "getRecentWinner",
      "outputs": [
        {
          "internalType": "address",
          "name": "",
          "type": "address"
        }
      ],
      "stateMutability": "view",
      "type": "function"
    },
    {
      "inputs": [],
      "name": "getRequestConfirmations",
      "outputs": [
        {
          "internalType": "uint256",
          "name": "",
          "type": "uint256"
        }
      ],
      "stateMutability": "pure",
      "type": "function"
    },
    {
      "inputs": [
        {
          "internalType": "bytes",
          "name": "",
          "type": "bytes"
        }
      ],
      "name": "performUpkeep",
      "outputs": [],
      "stateMutability": "nonpayable",
      "type": "function"
    },
    {
      "inputs": [
        {
          "internalType": "uint256",
          "name": "requestId",
          "type": "uint256"
        },
        {
          "internalType": "uint256[]",
          "name": "randomWords",
          "type": "uint256[]"
        }
      ],
      "name": "rawFulfillRandomWords",
      "outputs": [],
      "stateMutability": "nonpayable",
      "type": "function"
    }
  ],
  "bytecode": "0x6101606040523480156200001257600080fd5b5060405162001907380380620019078339818101604052810190620000389190620001ad565b858073ffffffffffffffffffffffffffffffffffffffff1660808173ffffffffffffffffffffffffffffffffffffffff1660601b81525050508573ffffffffffffffffffffffffffffffffffffffff1660c08173ffffffffffffffffffffffffffffffffffffffff1660601b815250508360e081815250508261014081815250508467ffffffffffffffff166101008167ffffffffffffffff1660c01b815250508160a081815250506000600160146101000a81548160ff021916908360018111156200010a5762000109620002b5565b5b0217905550426002819055508063ffffffff166101208163ffffffff1660e01b815250505050505050506200036b565b6000815190506200014b81620002e9565b92915050565b600081519050620001628162000303565b92915050565b60008151905062000179816200031d565b92915050565b600081519050620001908162000337565b92915050565b600081519050620001a78162000351565b92915050565b60008060008060008060c08789031215620001cd57620001cc620002e4565b5b6000620001dd89828a016200013a565b9650506020620001f089828a0162000196565b95505060406200020389828a0162000151565b94505060606200021689828a0162000168565b93505060806200022989828a0162000168565b92505060a06200023c89828a016200017f565b9150509295509295509295565b6000620002568262000267565b9050919050565b6000819050919050565b600073ffffffffffffffffffffffffffffffffffffffff82169050919050565b6000819050919050565b600063ffffffff82169050919050565b600067ffffffffffffffff82169050919050565b7f4e487b7100000000000000000000000000000000000000000000000000000000600052602160045260246000fd5b600080fd5b620002f48162000249565b81146200030057600080fd5b50565b6200030e816200025d565b81146200031a57600080fd5b50565b620003288162000287565b81146200033457600080fd5b50565b620003428162000291565b81146200034e57600080fd5b50565b6200035c81620002a1565b81146200036857600080fd5b50565b60805160601c60a05160c05160601c60e0516101005160c01c6101205160e01c61014051611519620003ee6000396000818161082f01526108d8015260006106e0015260006106bd0152600061069c015260006106600152600081816103400152818161043d015261090a01526000818161037d01526103d101526115196000f3fe6080604052600436106100dd5760003560e01c80635f1b0fd81161007f578063c1c244e811610059578063c1c244e81461027e578063d9dba732146102a9578063e55ae4e8146102d4578063fd6673f514610311576100dd565b80635f1b0fd8146101ea5780636e04ff0d1461021557806391ad27b414610253576100dd565b80632cfcc539116100bb5780632cfcc539146101615780634585e33b1461016b578063473f1ddc1461019457806353a2c19a146101bf576100dd565b806309bc33a7146100e2578063115cbaf51461010d5780631fe543e314610138575b600080fd5b3480156100ee57600080fd5b506100f761033c565b604051610104919061110d565b60405180910390f35b34801561011957600080fd5b50610122610364565b60405161012f91906110f2565b60405180910390f35b34801561014457600080fd5b5061015f600480360381019061015a9190610ed7565b61037b565b005b61016961043b565b005b34801561017757600080fd5b50610192600480360381019061018d9190610de7565b6105a9565b005b3480156101a057600080fd5b506101a96107a8565b6040516101b6919061102b565b60405180910390f35b3480156101cb57600080fd5b506101d46107d2565b6040516101e1919061110d565b60405180910390f35b3480156101f657600080fd5b506101ff6107df565b60405161020c919061110d565b60405180910390f35b34801561022157600080fd5b5061023c60048036038101906102379190610e34565b6107ec565b60405161024a92919061106f565b60405180910390f35b34801561025f57600080fd5b506102686108d4565b604051610275919061110d565b60405180910390f35b34801561028a57600080fd5b506102936108fc565b6040516102a0919061110d565b60405180910390f35b3480156102b557600080fd5b506102be610906565b6040516102cb919061110d565b60405180910390f35b3480156102e057600080fd5b506102fb60048036038101906102f69190610e7d565b61092e565b604051610308919061102b565b60405180910390f35b34801561031d57600080fd5b50610326610975565b604051610333919061110d565b60405180910390f35b60007f0000000000000000000000000000000000000000000000000000000000000000905090565b6000600160149054906101000a900460ff16905090565b7f000000000000000000000000000000000000000000000000000000000000000073ffffffffffffffffffffffffffffffffffffffff163373ffffffffffffffffffffffffffffffffffffffff161461042d57337f00000000000000000000000000000000000000000000000000000000000000006040517f1cf993f4000000000000000000000000000000000000000000000000000000008152600401610424929190611046565b60405180910390fd5b6104378282610981565b5050565b7f0000000000000000000000000000000000000000000000000000000000000000341015610495576040517fbd4e069500000000000000000000000000000000000000000000000000000000815260040160405180910390fd5b6001808111156104a8576104a76113f9565b5b600160149054906101000a900460ff1660018111156104ca576104c96113f9565b5b14610501576040517f1425571c00000000000000000000000000000000000000000000000000000000815260040160405180910390fd5b6000339080600181540180825580915050600190039060005260206000200160009091909190916101000a81548173ffffffffffffffffffffffffffffffffffffffff021916908373ffffffffffffffffffffffffffffffffffffffff1602179055503373ffffffffffffffffffffffffffffffffffffffff167f0805e1d667bddb8a95f0f09880cf94f403fb596ce79928d9f29b74203ba284d460405160405180910390a2565b60006105c3604051806020016040528060008152506107ec565b509050806106325747600080549050600160149054906101000a900460ff1660018111156105f4576105f36113f9565b5b6040517f584327aa00000000000000000000000000000000000000000000000000000000815260040161062993929190611128565b60405180910390fd5b60018060146101000a81548160ff02191690836001811115610657576106566113f9565b5b021790555060007f000000000000000000000000000000000000000000000000000000000000000073ffffffffffffffffffffffffffffffffffffffff16635d3b1d307f00000000000000000000000000000000000000000000000000000000000000007f000000000000000000000000000000000000000000000000000000000000000060037f000000000000000000000000000000000000000000000000000000000000000060016040518663ffffffff1660e01b815260040161072195949392919061109f565b602060405180830381600087803b15801561073b57600080fd5b505af115801561074f573d6000803e3d6000fd5b505050506040513d601f19601f820116820180604052508101906107739190610eaa565b9050807fde6349b018d6c03d837b67d9a198a6ba4842546f2295fe963fae141e5dbaef8160405160405180910390a250505050565b6000600160009054906101000a900473ffffffffffffffffffffffffffffffffffffffff16905090565b6000600161ffff16905090565b6000600361ffff16905090565b600060606000600160149054906101000a900460ff166001811115610814576108136113f9565b5b60006001811115610828576108276113f9565b5b14905060007f00000000000000000000000000000000000000000000000000000000000000006002544261085c9190611208565b1190506000806000805490501190506000804711905083801561087c5750825b80156108855750815b801561088e5750805b9550856040518060400160405280600381526020017f30783000000000000000000000000000000000000000000000000000000000008152509550955050505050915091565b60007f0000000000000000000000000000000000000000000000000000000000000000905090565b6000600254905090565b60007f0000000000000000000000000000000000000000000000000000000000000000905090565b600080828154811061094357610942611428565b5b9060005260206000200160009054906101000a900473ffffffffffffffffffffffffffffffffffffffff169050919050565b60008080549050905090565b600080805490508260008151811061099c5761099b611428565b5b60200260200101516109ae919061136a565b905060008082815481106109c5576109c4611428565b5b9060005260206000200160009054906101000a900473ffffffffffffffffffffffffffffffffffffffff16905080600160006101000a81548173ffffffffffffffffffffffffffffffffffffffff021916908373ffffffffffffffffffffffffffffffffffffffff1602179055506000600160146101000a81548160ff02191690836001811115610a5957610a586113f9565b5b0217905550600067ffffffffffffffff811115610a7957610a78611457565b5b604051908082528060200260200182016040528015610aa75781602001602082028036833780820191505090505b5060009080519060200190610abd929190610bb2565b504260028190555060008173ffffffffffffffffffffffffffffffffffffffff1647604051610aeb90611016565b60006040518083038185875af1925050503d8060008114610b28576040519150601f19603f3d011682016040523d82523d6000602084013e610b2d565b606091505b5050905080610b68576040517fa1d04b3900000000000000000000000000000000000000000000000000000000815260040160405180910390fd5b8173ffffffffffffffffffffffffffffffffffffffff167f5b690ec4a06fe979403046eaeea5b3ce38524683c3001f662c8b5a829632f7df60405160405180910390a25050505050565b828054828255906000526020600020908101928215610c2b579160200282015b82811115610c2a5782518260006101000a81548173ffffffffffffffffffffffffffffffffffffffff021916908373ffffffffffffffffffffffffffffffffffffffff16021790555091602001919060010190610bd2565b5b509050610c389190610c3c565b5090565b5b80821115610c55576000816000905550600101610c3d565b5090565b6000610c6c610c6784611184565b61115f565b90508083825260208201905082856020860282011115610c8f57610c8e611490565b5b60005b85811015610cbf5781610ca58882610dbd565b845260208401935060208301925050600181019050610c92565b5050509392505050565b6000610cdc610cd7846111b0565b61115f565b905082815260208101848484011115610cf857610cf7611495565b5b610d038482856112f7565b509392505050565b600082601f830112610d2057610d1f61148b565b5b8135610d30848260208601610c59565b91505092915050565b60008083601f840112610d4f57610d4e61148b565b5b8235905067ffffffffffffffff811115610d6c57610d6b611486565b5b602083019150836001820283011115610d8857610d87611490565b5b9250929050565b600082601f830112610da457610da361148b565b5b8135610db4848260208601610cc9565b91505092915050565b600081359050610dcc816114cc565b92915050565b600081519050610de1816114cc565b92915050565b60008060208385031215610dfe57610dfd61149f565b5b600083013567ffffffffffffffff811115610e1c57610e1b61149a565b5b610e2885828601610d39565b92509250509250929050565b600060208284031215610e4a57610e4961149f565b5b600082013567ffffffffffffffff811115610e6857610e6761149a565b5b610e7484828501610d8f565b91505092915050565b600060208284031215610e9357610e9261149f565b5b6000610ea184828501610dbd565b91505092915050565b600060208284031215610ec057610ebf61149f565b5b6000610ece84828501610dd2565b91505092915050565b60008060408385031215610eee57610eed61149f565b5b6000610efc85828601610dbd565b925050602083013567ffffffffffffffff811115610f1d57610f1c61149a565b5b610f2985828601610d0b565b9150509250929050565b610f3c8161123c565b82525050565b610f4b8161124e565b82525050565b610f5a8161125a565b82525050565b6000610f6b826111e1565b610f7581856111ec565b9350610f85818560208601611306565b610f8e816114a4565b840191505092915050565b610fa2816112d3565b82525050565b6000610fb56000836111fd565b9150610fc0826114b5565b600082019050919050565b610fd481611277565b82525050565b610fe3816112e5565b82525050565b610ff2816112a5565b82525050565b611001816112af565b82525050565b611010816112bf565b82525050565b600061102182610fa8565b9150819050919050565b60006020820190506110406000830184610f33565b92915050565b600060408201905061105b6000830185610f33565b6110686020830184610f33565b9392505050565b60006040820190506110846000830185610f42565b81810360208301526110968184610f60565b90509392505050565b600060a0820190506110b46000830188610f51565b6110c16020830187611007565b6110ce6040830186610fcb565b6110db6060830185610ff8565b6110e86080830184610fda565b9695505050505050565b60006020820190506111076000830184610f99565b92915050565b60006020820190506111226000830184610fe9565b92915050565b600060608201905061113d6000830186610fe9565b61114a6020830185610fe9565b6111576040830184610fe9565b949350505050565b600061116961117a565b90506111758282611339565b919050565b6000604051905090565b600067ffffffffffffffff82111561119f5761119e611457565b5b602082029050602081019050919050565b600067ffffffffffffffff8211156111cb576111ca611457565b5b6111d4826114a4565b9050602081019050919050565b600081519050919050565b600082825260208201905092915050565b600081905092915050565b6000611213826112a5565b915061121e836112a5565b9250828210156112315761123061139b565b5b828203905092915050565b600061124782611285565b9050919050565b60008115159050919050565b6000819050919050565b6000819050611272826114b8565b919050565b600061ffff82169050919050565b600073ffffffffffffffffffffffffffffffffffffffff82169050919050565b6000819050919050565b600063ffffffff82169050919050565b600067ffffffffffffffff82169050919050565b60006112de82611264565b9050919050565b60006112f082611277565b9050919050565b82818337600083830152505050565b60005b83811015611324578082015181840152602081019050611309565b83811115611333576000848401525b50505050565b611342826114a4565b810181811067ffffffffffffffff8211171561136157611360611457565b5b80604052505050565b6000611375826112a5565b9150611380836112a5565b9250826113905761138f6113ca565b5b828206905092915050565b7f4e487b7100000000000000000000000000000000000000000000000000000000600052601160045260246000fd5b7f4e487b7100000000000000000000000000000000000000000000000000000000600052601260045260246000fd5b7f4e487b7100000000000000000000000000000000000000000000000000000000600052602160045260246000fd5b7f4e487b7100000000000000000000000000000000000000000000000000000000600052603260045260246000fd5b7f4e487b7100000000000000000000000000000000000000000000000000000000600052604160045260246000fd5b600080fd5b600080fd5b600080fd5b600080fd5b600080fd5b600080fd5b6000601f19601f8301169050919050565b50565b600281106114c9576114c86113f9565b5b50565b6114d5816112a5565b81146114e057600080fd5b5056fea2646970667358221220bd37a34b187a4f7ff3409fa2263261cfb3897770f49e6e8e8592c92b82663f1b64736f6c63430008070033",
  "linkReferences": {},
  "deployedLinkReferences": {}
}